8=FIX.4.4|9=178|35=D|49=BrokerA|56=ExchangeX|34=1|52=20240829-09:01:00|11=ORD0001|21=1|55=AAPL|54=1|38=100|40=2|44=150.00|59=0|10=001|
8=FIX.4.4|9=181|35=D|49=BrokerA|56=ExchangeX|34=2|52=20240829-09:02:00|11=ORD0002|21=1|55=MSFT|54=2|38=200|40=2|44=299.50|59=0|10=002|
8=FIX.4.4|9=180|35=D|49=BrokerB|56=ExchangeX|34=1|52=20240829-09:03:00|11=ORD0003|21=1|55=GOOGL|54=1|38=150|40=2|44=2750.00|59=0|10=003|
8=FIX.4.4|9=176|35=D|49=BrokerC|56=ExchangeX|34=1|52=20240829-09:04:00|11=ORD0004|21=1|55=AMZN|54=2|38=75|40=2|44=3400.00|59=0|10=004|
8=FIX.4.4|9=175|35=D|49=BrokerD|56=ExchangeX|34=1|52=20240829-09:05:00|11=ORD0005|21=1|55=TSLA|54=1|38=50|40=2|44=720.50|59=0|10=005|
8=FIX.4.4|9=136|35=F|49=BrokerA|56=ExchangeX|34=3|52=20240829-09:06:00|11=ORD0006|41=ORD0002|55=MSFT|54=2|60=20240829-09:06:00|10=006|
8=FIX.4.4|9=140|35=H|49=BrokerB|56=ExchangeX|34=2|52=20240829-09:07:00|55=GOOGL|11=ORD0007|54=1|10=007|
8=FIX.4.4|9=216|35=8|49=ExchangeX|56=BrokerA|34=4|52=20240829-09:08:00|37=EXEC0001|17=EX00001|11=ORD0001|55=AAPL|54=1|150=0|39=2|38=100|44=150.00|32=100|31=150.00|14=100|6=150.00|60=20240829-09:08:00|10=008|
8=FIX.4.4|9=191|35=AE|49=ExchangeX|56=BrokerC|34=2|52=20240829-09:09:00|17=TRD0001|150=F|55=AMZN|31=3400.00|32=75|75=20240829|60=20240829-09:09:00|10=009|
8=FIX.4.4|9=179|35=D|49=BrokerD|56=ExchangeX|34=2|52=20240829-09:10:00|11=ORD0008|21=1|55=FB|54=1|38=100|40=2|44=365.50|59=0|10=010|
8=FIX.4.4|9=216|35=8|49=ExchangeX|56=BrokerD|34=3|52=20240829-09:11:00|37=EXEC0002|17=EX00002|11=ORD0005|55=TSLA|54=1|150=0|39=2|38=50|44=720.50|32=50|31=720.50|14=50|6=720.50|60=20240829-09:11:00|10=011|
8=FIX.4.4|9=173|35=D|49=BrokerA|56=ExchangeX|34=5|52=20240829-09:12:00|11=ORD0009|21=1|55=NFLX|54=2|38=70|40=2|44=590.00|59=0|10=012|
8=FIX.4.4|9=136|35=F|49=BrokerD|56=ExchangeX|34=4|52=20240829-09:13:00|11=ORD0010|41=ORD0008|55=FB|54=1|60=20240829-09:13:00|10=013|
8=FIX.4.4|9=140|35=H|49=BrokerB|56=ExchangeX|34=3|52=20240829-09:14:00|55=GOOGL|11=ORD0011|54=1|10=014|
8=FIX.4.4|9=216|35=8|49=ExchangeX|56=BrokerC|34=3|52=20240829-09:15:00|37=EXEC0003|17=EX00003|11=ORD0004|55=AMZN|54=2|150=0|39=2|38=75|44=3400.00|32=75|31=3400.00|14=75|6=3400.00|60=20240829-09:15:00|10=015|
8=FIX.4.4|9=173|35=D|49=BrokerA|56=ExchangeX|34=6|52=20240829-09:16:00|11=ORD0012|21=1|55=AAPL|54=2|38=120|40=2|44=149.50|59=0|10=016|
8=FIX.4.4|9=179|35=D|49=BrokerD|56=ExchangeX|34=5|52=20240829-09:17:00|11=ORD0013|21=1|55=MSFT|54=1|38=150|40=2|44=299.25|59=0|10=017|
8=FIX.4.4|9=181|35=D|49=BrokerB|56=ExchangeX|34=4|52=20240829-09:18:00|11=ORD0014|21=1|55=GOOGL|54=2|38=125|40=2|44=2745.75|59=0|10=018|
8=FIX.4.4|9=191|35=AE|49=ExchangeX|56=BrokerD|34=6|52=20240829-09:19:00|17=TRD0002|150=F|55=TSLA|31=721.00|32=50|75=20240829|60=20240829-09:19:00|10=019|
8=FIX.4.4|9=216|35=8|49=ExchangeX|56=BrokerA|34=7|52=20240829-09:20:00|37=EXEC0004|17=EX00004|11=ORD0009|55=NFLX|54=2|150=0|39=2|38=70|44=590.00|32=70|31=590.00|14=70|6=590.00|60=20240829-09:20:00|10=020|
8=FIX.4.4|9=173|35=D|49=BrokerC|56=ExchangeX|34=4|52=20240829-09:21:00|11=ORD0015|21=1|55=AMZN|54=1|38=65|40=2|44=3399.50|59=0|10=021|
8=FIX.4.4|9=181|35=D|49=BrokerB|56=ExchangeX|34=5|52=20240829-09:22:00|11=ORD0016|21=1|55=GOOGL|54=1|38=130|40=2|44=2751.00|59=0|10=022|
8=FIX.4.4|9=136|35=F|49=BrokerD|56=ExchangeX|34=7|52=20240829-09:23:00|11=ORD0017|41=ORD0013|55=MSFT|54=1|60=20240829-09:23:00|10=023|
8=FIX.4.4|9=216|35=8|49=ExchangeX|56=BrokerC|34=5|52=20240829-09:24:00|37=EXEC0005|17=EX00005|11=ORD0015|55=AMZN|54=1|150=0|39=2|38=65|44=3399.50|32=65|31=3399.50|14=65|6=3399.50|60=20240829-09:24:00|10=024|
8=FIX.4.4|9=181|35=D|49=BrokerA|56=ExchangeX|34=8|52=20240829-09:25:00|11=ORD0018|21=1|55=AAPL|54=1|38=75|40=2|44=150.25|59=0|10=025|
8=FIX.4.4|9=216|35=8|49=ExchangeX|56=BrokerA|34=9|52=20240829-09:26:00|37=EXEC0006|17=EX00006|11=ORD0018|55=AAPL|54=1|150=0|39=2|38=75|44=150.25|32=75|31=150.25|14=75|6=150.25|60=20240829-09:26:00|10=026|
8=FIX.4.4|9=179|35=D|49=BrokerB|56=ExchangeX|34=6|52=20240829-09:27:00|11=ORD0019|21=1|55=GOOGL|54=2|38=110|40=2|44=2750.75|59=0|10=027|
8=FIX.4.4|9=216|35=8|49=ExchangeX|56=BrokerB|34=7|52=20240829-09:28:00|37=EXEC0007|17=EX00007|11=ORD0019|55=GOOGL|54=2|150=0|39=2|38=110|44=2750.75|32=110|31=2750.75|14=110|6=2750.75|60=20240829-09:28:00|10=028|
8=FIX.4.4|9=173|35=D|49=BrokerC|56=ExchangeX|34=6|52=20240829-09:29:00|11=ORD0020|21=1|55=FB|54=1|38=125|40=2|44=366.00|59=0|10=029|
8=FIX.4.4|9=136|35=F|49=BrokerC|56=ExchangeX|34=7|52=20240829-09:30:00|11=ORD0021|41=ORD0020|55=FB|54=1|60=20240829-09:30:00|10=030|
8=FIX.4.4|9=216|35=8|49=ExchangeX|56=BrokerA|34=10|52=20240829-09:31:00|37=EXEC0008|17=EX00008|11=ORD0012|55=AAPL|54=2|150=0|39=2|38=120|44=149.50|32=120|31=149.50|14=120|6=149.50|60=20240829-09:31:00|10=031|
8=FIX.4.4|9=173|35=D|49=BrokerD|56=ExchangeX|34=8|52=20240829-09:32:00|11=ORD0022|21=1|55=MSFT|54=1|38=135|40=2|44=299.00|59=0|10=032|
8=FIX.4.4|9=216|35=8|49=ExchangeX|56=BrokerD|34=9|52=20240829-09:33:00|37=EXEC0009|17=EX00009|11=ORD0022|55=MSFT|54=1|150=0|39=2|38=135|44=299.00|32=135|31=299.00|14=135|6=299.00|60=20240829-09:33:00|10=033|
8=FIX.4.4|9=173|35=D|49=BrokerB|56=ExchangeX|34=8|52=20240829-09:34:00|11=ORD0023|21=1|55=GOOGL|54=2|38=140|40=2|44=2752.00|59=0|10=034|
8=FIX.4.4|9=216|35=8|49=ExchangeX|56=BrokerC|34=8|52=20240829-09:35:00|37=EXEC0010|17=EX00010|11=ORD0020|55=FB|54=1|150=0|39=2|38=125|44=366.00|32=125|31=366.00|14=125|6=366.00|60=20240829-09:35:00|10=035|
8=FIX.4.4|9=173|35=D|49=BrokerA|56=ExchangeX|34=11|52=20240829-09:36:00|11=ORD0024|21=1|55=AAPL|54=1|38=150|40=2|44=150.75|59=0|10=036|
8=FIX.4.4|9=216|35=8|49=ExchangeX|56=BrokerA|34=12|52=20240829-09:37:00|37=EXEC0011|17=EX00011|11=ORD0024|55=AAPL|54=1|150=0|39=2|38=150|44=150.75|32=150|31=150.75|14=150|6=150.75|60=20240829-09:37:00|10=037|
8=FIX.4.4|9=173|35=D|49=BrokerB|56=ExchangeX|34=9|52=20240829-09:38:00|11=ORD0025|21=1|55=GOOGL|54=1|38=115|40=2|44=2749.75|59=0|10=038|
8=FIX.4.4|9=216|35=8|49=ExchangeX|56=BrokerB|34=10|52=20240829-09:39:00|37=EXEC0012|17=EX00012|11=ORD0025|55=GOOGL|54=1|150=0|39=2|38=115|44=2749.75|32=115|31=2749.75|14=115|6=2749.75|60=20240829-09:39:00|10=039|
8=FIX.4.4|9=173|35=D|49=BrokerD|56=ExchangeX|34=10|52=20240829-09:40:00|11=ORD0026|21=1|55=MSFT|54=2|38=90|40=2|44=299.75|59=0|10=040|
8=FIX.4.4|9=216|35=8|49=ExchangeX|56=BrokerD|34=11|52=20240829-09:41:00|37=EXEC0013|17=EX00013|11=ORD0026|55=MSFT|54=2|150=0|39=2|38=90|44=299.75|32=90|31=299.75|14=90|6=299.75|60=20240829-09:41:00|10=041|
8=FIX.4.4|9=173|35=D|49=BrokerC|56=ExchangeX|34=9|52=20240829-09:42:00|11=ORD0027|21=1|55=FB|54=1|38=135|40=2|44=366.25|59=0|10=042|
8=FIX.4.4|9=216|35=8|49=ExchangeX|56=BrokerC|34=10|52=20240829-09:43:00|37=EXEC0014|17=EX00014|11=ORD0027|55=FB|54=1|150=0|39=2|38=135|44=366.25|32=135|31=366.25|14=135|6=366.25|60=20240829-09:43:00|10=043|
8=FIX.4.4|9=173|35=D|49=BrokerA|56=ExchangeX|34=13|52=20240829-09:44:00|11=ORD0028|21=1|55=AAPL|54=1|38=125|40=2|44=151.00|59=0|10=044|
8=FIX.4.4|9=216|35=8|49=ExchangeX|56=BrokerA|34=14|52=20240829-09:45:00|37=EXEC0015|17=EX00015|11=ORD0028|55=AAPL|54=1|150=0|39=2|38=125|44=151.00|32=125|31=151.00|14=125|6=151.00|60=20240829-09:45:00|10=045|
8=FIX.4.4|9=173|35=D|49=BrokerB|56=ExchangeX|34=11|52=20240829-09:46:00|11=ORD0029|21=1|55=GOOGL|54=1|38=150|40=2|44=2753.25|59=0|10=046|
8=FIX.4.4|9=216|35=8|49=ExchangeX|56=BrokerB|34=12|52=20240829-09:47:00|37=EXEC0016|17=EX00016|11=ORD0029|55=GOOGL|54=1|150=0|39=2|38=150|44=2753.25|32=150|31=2753.25|14=150|6=2753.25|60=20240829-09:47:00|10=047|
8=FIX.4.4|9=173|35=D|49=BrokerC|56=ExchangeX|34=11|52=20240829-09:48:00|11=ORD0030|21=1|55=FB|54=2|38=140|40=2|44=366.50|59=0|10=048|
8=FIX.4.4|9=216|35=8|49=ExchangeX|56=BrokerC|34=12|52=20240829-09:49:00|37=EXEC0017|17=EX00017|11=ORD0030|55=FB|54=2|150=0|39=2|38=140|44=366.50|32=140|31=366.50|14=140|6=366.50|60=20240829-09:49:00|10=049|
8=FIX.4.4|9=173|35=D|49=BrokerA|56=ExchangeX|34=15|52=20240829-09:50:00|11=ORD0031|21=1|55=AAPL|54=2|38=130|40=2|44=150.50|59=0|10=050|
8=FIX.4.4|9=216|35=8|49=ExchangeX|56=BrokerA|34=16|52=20240829-09:51:00|37=EXEC0018|17=EX00018|11=ORD0031|55=AAPL|54=2|150=0|39=2|38=130|44=150.50|32=130|31=150.50|14=130|6=150.50|60=20240829-09:51:00|10=051|
8=FIX.4.4|9=173|35=D|49=BrokerB|56=ExchangeX|34=13|52=20240829-09:52:00|11=ORD0032|21=1|55=GOOGL|54=1|38=125|40=2|44=2754.00|59=0|10=052|
8=FIX.4.4|9=216|35=8|49=ExchangeX|56=BrokerB|34=14|52=20240829-09:53:00|37=EXEC0019|17=EX00019|11=ORD0032|55=GOOGL|54=1|150=0|39=2|38=125|44=2754.00|32=125|31=2754.00|14=125|6=2754.00|60=20240829-09:53:00|10=053|
8=FIX.4.4|9=173|35=D|49=BrokerC|56=ExchangeX|34=13|52=20240829-09:54:00|11=ORD0033|21=1|55=FB|54=2|38=145|40=2|44=366.75|59=0|10=054|
8=FIX.4.4|9=216|35=8|49=ExchangeX|56=BrokerC|34=14|52=20240829-09:55:00|37=EXEC0020|17=EX00020|11=ORD0033|55=FB|54=2|150=0|39=2|38=145|44=366.75|32=145|31=366.75|14=145|6=366.75|60=20240829-09:55:00|10=055|
8=FIX.4.4|9=173|35=D|49=BrokerD|56=ExchangeX|34=12|52=20240829-09:56:00|11=ORD0034|21=1|55=MSFT|54=1|38=95|40=2|44=300.00|59=0|10=056|
8=FIX.4.4|9=216|35=8|49=ExchangeX|56=BrokerD|34=13|52=20240829-09:57:00|37=EXEC0021|17=EX00021|11=ORD0034|55=MSFT|54=1|150=0|39=2|38=95|44=300.00|32=95|31=300.00|14=95|6=300.00|60=20240829-09:57:00|10=057|
8=FIX.4.4|9=173|35=D|49=BrokerB|56=ExchangeX|34=15|52=20240829-09:58:00|11=ORD0035|21=1|55=GOOGL|54=2|38=130|40=2|44=2755.00|59=0|10=058|
8=FIX.4.4|9=216|35=8|49=ExchangeX|56=BrokerB|34=16|52=20240829-09:59:00|37=EXEC0022|17=EX00022|11=ORD0035|55=GOOGL|54=2|150=0|39=2|38=130|44=2755.00|32=130|31=2755.00|14=130|6=2755.00|60=20240829-09:59:00|10=059|
8=FIX.4.4|9=173|35=D|49=BrokerC|56=ExchangeX|34=15|52=20240829-10:00:00|11=ORD0036|21=1|55=FB|54=2|38=155|40=2|44=367.00|59=0|10=060|
8=FIX.4.4|9=216|35=8|49=ExchangeX|56=BrokerC|34=16|52=20240829-10:01:00|37=EXEC0023|17=EX00023|11=ORD0036|55=FB|54=2|150=0|39=2|38=155|44=367.00|32=155|31=367.00|14=155|6=367.00|60=20240829-10:01:00|10=061|
8=FIX.4.4|9=173|35=D|49=BrokerD|56=ExchangeX|34=14|52=20240829-10:02:00|11=ORD0037|21=1|55=MSFT|54=2|38=120|40=2|44=300.25|59=0|10=062|
8=FIX.4.4|9=216|35=8|49=ExchangeX|56=BrokerD|34=15|52=20240829-10:03:00|37=EXEC0024|17=EX00024|11=ORD0037|55=MSFT|54=2|150=0|39=2|38=120|44=300.25|32=120|31=300.25|14=120|6=300.25|60=20240829-10:03:00|10=063|
8=FIX.4.4|9=173|35=D|49=BrokerB|56=ExchangeX|34=17|52=20240829-10:04:00|11=ORD0038|21=1|55=GOOGL|54=2|38=160|40=2|44=2756.00|59=0|10=064|
8=FIX.4.4|9=216|35=8|49=ExchangeX|56=BrokerB|34=18|52=20240829-10:05:00|37=EXEC0025|17=EX00025|11=ORD0038|55=GOOGL|54=2|150=0|39=2|38=160|44=2756.00|32=160|31=2756.00|14=160|6=2756.00|60=20240829-10:05:00|10=065|
8=FIX.4.4|9=173|35=D|49=BrokerC|56=ExchangeX|34=17|52=20240829-10:06:00|11=ORD0039|21=1|55=FB|54=2|38=160|40=2|44=367.25|59=0|10=066|
8=FIX.4.4|9=216|35=8|49=ExchangeX|56=BrokerC|34=18|52=20240829-10:07:00|37=EXEC0026|17=EX00026|11=ORD0039|55=FB|54=2|150=0|39=2|38=160|44=367.25|32=160|31=367.25|14=160|6=367.25|60=20240829-10:07:00|10=067|
8=FIX.4.4|9=173|35=D|49=BrokerD|56=ExchangeX|34=18|52=20240829-10:08:00|11=ORD0040|21=1|55=AAPL|54=1|38=145|40=2|44=151.50|59=0|10=068|
8=FIX.4.4|9=216|35=8|49=ExchangeX|56=BrokerD|34=19|52=20240829-10:09:00|37=EXEC0027|17=EX00027|11=ORD0040|55=AAPL|54=1|150=0|39=2|38=145|44=151.50|32=145|31=151.50|14=145|6=151.50|60=20240829-10:09:00|10=069|
8=FIX.4.4|9=179|35=D|49=BrokerB|56=ExchangeX|34=19|52=20240829-10:10:00|11=ORD0041|21=1|55=GOOGL|54=1|38=170|40=2|44=2757.00|59=0|10=070|
8=FIX.4.4|9=216|35=8|49=ExchangeX|56=BrokerB|34=20|52=20240829-10:11:00|37=EXEC0028|17=EX00028|11=ORD0041|55=GOOGL|54=1|150=0|39=2|38=170|44=2757.00|32=170|31=2757.00|14=170|6=2757.00|60=20240829-10:11:00|10=071|
8=FIX.4.4|9=173|35=D|49=BrokerA|56=ExchangeX|34=20|52=20240829-10:12:00|11=ORD0042|21=1|55=FB|54=1|38=165|40=2|44=368.00|59=0|10=072|
8=FIX.4.4|9=216|35=8|49=ExchangeX|56=BrokerA|34=21|52=20240829-10:13:00|37=EXEC0029|17=EX00029|11=ORD0042|55=FB|54=1|150=0|39=2|38=165|44=368.00|32=165|31=368.00|14=165|6=368.00|60=20240829-10:13:00|10=073|
8=FIX.4.4|9=179|35=D|49=BrokerC|56=ExchangeX|34=19|52=20240829-10:14:00|11=ORD0043|21=1|55=AAPL|54=2|38=175|40=2|44=151.25|59=0|10=074|
8=FIX.4.4|9=216|35=8|49=ExchangeX|56=BrokerC|34=20|52=20240829-10:15:00|37=EXEC0030|17=EX00030|11=ORD0043|55=AAPL|54=2|150=0|39=2|38=175|44=151.25|32=175|31=151.25|14=175|6=151.25|60=20240829-10:15:00|10=075|
8=FIX.4.4|9=179|35=D|49=BrokerD|56=ExchangeX|34=21|52=20240829-10:16:00|11=ORD0044|21=1|55=MSFT|54=1|38=185|40=2|44=300.50|59=0|10=076|
8=FIX.4.4|9=216|35=8|49=ExchangeX|56=BrokerD|34=22|52=20240829-10:17:00|37=EXEC0031|17=EX00031|11=ORD0044|55=MSFT|54=1|150=0|39=2|38=185|44=300.50|32=185|31=300.50|14=185|6=300.50|60=20240829-10:17:00|10=077|
8=FIX.4.4|9=179|35=D|49=BrokerB|56=ExchangeX|34=22|52=20240829-10:18:00|11=ORD0045|21=1|55=GOOGL|54=2|38=135|40=2|44=2758.00|59=0|10=078|
8=FIX.4.4|9=216|35=8|49=ExchangeX|56=BrokerB|34=23|52=20240829-10:19:00|37=EXEC0032|17=EX00032|11=ORD0045|55=GOOGL|54=2|150=0|39=2|38=135|44=2758.00|32=135|31=2758.00|14=135|6=2758.00|60=20240829-10:19:00|10=079|
8=FIX.4.4|9=179|35=D|49=BrokerA|56=ExchangeX|34=23|52=20240829-10:20:00|11=ORD0046|21=1|55=AAPL|54=1|38=180|40=2|44=151.75|59=0|10=080|
8=FIX.4.4|9=216|35=8|49=ExchangeX|56=BrokerA|34=24|52=20240829-10:21:00|37=EXEC0033|17=EX00033|11=ORD0046|55=AAPL|54=1|150=0|39=2|38=180|44=151.75|32=180|31=151.75|14=180|6=151.75|60=20240829-10:21:00|10=081|
8=FIX.4.4|9=179|35=D|49=BrokerC|56=ExchangeX|34=21|52=20240829-10:22:00|11=ORD0047|21=1|55=FB|54=2|38=175|40=2|44=368.25|59=0|10=082|
8=FIX.4.4|9=216|35=8|49=ExchangeX|56=BrokerC|34=22|52=20240829-10:23:00|37=EXEC0034|17=EX00034|11=ORD0047|55=FB|54=2|150=0|39=2|38=175|44=368.25|32=175|31=368.25|14=175|6=368.25|60=20240829-10:23:00|10=083|
8=FIX.4.4|9=179|35=D|49=BrokerD|56=ExchangeX|34=23|52=20240829-10:24:00|11=ORD0048|21=1|55=MSFT|54=1|38=190|40=2|44=300.75|59=0|10=084|
8=FIX.4.4|9=216|35=8|49=ExchangeX|56=BrokerD|34=24|52=20240829-10:25:00|37=EXEC0035|17=EX00035|11=ORD0048|55=MSFT|54=1|150=0|39=2|38=190|44=300.75|32=190|31=300.75|14=190|6=300.75|60=20240829-10:25:00|10=085|
8=FIX.4.4|9=179|35=D|49=BrokerA|56=ExchangeX|34=25|52=20240829-10:26:00|11=ORD0049|21=1|55=GOOGL|54=1|38=200|40=2|44=2759.00|59=0|10=086|
8=FIX.4.4|9=216|35=8|49=ExchangeX|56=BrokerA|34=26|52=20240829-10:27:00|37=EXEC0036|17=EX00036|11=ORD0049|55=GOOGL|54=1|150=0|39=2|38=200|44=2759.00|32=200|31=2759.00|14=200|6=2759.00|60=20240829-10:27:00|10=087|
8=FIX.4.4|9=173|35=D|49=BrokerB|56=ExchangeX|34=25|52=20240829-10:28:00|11=ORD0050|21=1|55=AAPL|54=1|38=185|40=2|44=152.00|59=0|10=088|
8=FIX.4.4|9=216|35=8|49=ExchangeX|56=BrokerB|34=26|52=20240829-10:29:00|37=EXEC0037|17=EX00037|11=ORD0050|55=AAPL|54=1|150=0|39=2|38=185|44=152.00|32=185|31=152.00|14=185|6=152.00|60=20240829-10:29:00|10=089|
8=FIX.4.4|9=173|35=D|49=BrokerC|56=ExchangeX|34=23|52=20240829-10:30:00|11=ORD0051|21=1|55=FB|54=2|38=165|40=2|44=369.00|59=0|10=090|
8=FIX.4.4|9=216|35=8|49=ExchangeX|56=BrokerC|34=24|52=20240829-10:31:00|37=EXEC0038|17=EX00038|11=ORD0051|55=FB|54=2|150=0|39=2|38=165|44=369.00|32=165|31=369.00|14=165|6=369.00|60=20240829-10:31:00|10=091|
8=FIX.4.4|9=173|35=D|49=BrokerD|56=ExchangeX|34=25|52=20240829-10:32:00|11=ORD0052|21=1|55=MSFT|54=1|38=200|40=2|44=301.00|59=0|10=092|
8=FIX.4.4|9=216|35=8|49=ExchangeX|56=BrokerD|34=26|52=20240829-10:33:00|37=EXEC0039|17=EX00039|11=ORD0052|55=MSFT|54=1|150=0|39=2|38=200|44=301.00|32=200|31=301.00|14=200|6=301.00|60=20240829-10:33:00|10=093|
---
8=FIX.4.4|9=290|35=AB|49=BrokerA|56=ExchangeX|34=1|52=20240829-09:00:00|11=MLG001|55=AAPL|54=1|60=20240829-09:00:00|15=USD|40=2|44=150.50|38=100|442=1|555=2|600=LEG1|608=202409|54=1|623=1|624=0|566=100|600=LEG2|608=202409|54=2|623=2|624=0|566=200|10=001|
8=FIX.4.4|9=300|35=8|49=ExchangeX|56=BrokerA|34=2|52=20240829-09:01:00|37=EXEC0001|17=EX00001|11=MLG001|55=AAPL|54=1|150=0|39=2|44=150.50|38=100|442=1|555=2|600=LEG1|608=202409|54=1|32=50|31=150.50|600=LEG2|608=202409|54=2|32=50|31=150.50|60=20240829-09:01:00|10=002|
8=FIX.4.4|9=290|35=AB|49=BrokerB|56=ExchangeX|34=3|52=20240829-09:05:00|11=MLG002|55=GOOGL|54=1|60=20240829-09:05:00|15=USD|40=2|44=2760.00|38=150|442=1|555=2|600=LEG1|608=202410|54=1|623=1|624=0|566=150|600=LEG2|608=202410|54=2|623=2|624=0|566=300|10=003|
8=FIX.4.4|9=305|35=8|49=ExchangeX|56=BrokerB|34=4|52=20240829-09:06:00|37=EXEC0002|17=EX00002|11=MLG002|55=GOOGL|54=1|150=0|39=2|44=2760.00|38=150|442=1|555=2|600=LEG1|608=202410|54=1|32=75|31=2760.00|600=LEG2|608=202410|54=2|32=75|31=2760.00|60=20240829-09:06:00|10=004|
8=FIX.4.4|9=290|35=AB|49=BrokerC|56=ExchangeX|34=5|52=20240829-09:10:00|11=MLG003|55=MSFT|54=2|60=20240829-09:10:00|15=USD|40=2|44=301.00|38=200|442=1|555=2|600=LEG1|608=202411|54=2|623=1|624=0|566=200|600=LEG2|608=202411|54=1|623=2|624=0|566=400|10=005|
8=FIX.4.4|9=310|35=8|49=ExchangeX|56=BrokerC|34=6|52=20240829-09:11:00|37=EXEC0003|17=EX00003|11=MLG003|55=MSFT|54=2|150=0|39=2|44=301.00|38=200|442=1|555=2|600=LEG1|608=202411|54=2|32=100|31=301.00|600=LEG2|608=202411|54=1|32=100|31=301.00|60=20240829-09:11:00|10=006|
8=FIX.4.4|9=290|35=AB|49=BrokerD|56=ExchangeX|34=7|52=20240829-09:15:00|11=MLG004|55=FB|54=1|60=20240829-09:15:00|15=USD|40=2|44=369.50|38=180|442=1|555=2|600=LEG1|608=202412|54=1|623=1|624=0|566=180|600=LEG2|608=202412|54=2|623=2|624=0|566=360|10=007|
8=FIX.4.4|9=315|35=8|49=ExchangeX|56=BrokerD|34=8|52=20240829-09:16:00|37=EXEC0004|17=EX00004|11=MLG004|55=FB|54=1|150=0|39=2|44=369.50|38=180|442=1|555=2|600=LEG1|608=202412|54=1|32=90|31=369.50|600=LEG2|608=202412|54=2|32=90|31=369.50|60=20240829-09:16:00|10=008|
8=FIX.4.4|9=290|35=AB|49=BrokerA|56=ExchangeX|34=9|52=20240829-09:20:00|11=MLG005|55=TSLA|54=2|60=20240829-09:20:00|15=USD|40=2|44=720.75|38=250|442=1|555=2|600=LEG1|608=202413|54=2|623=1|624=0|566=250|600=LEG2|608=202413|54=1|623=2|624=0|566=500|10=009|
8=FIX.4.4|9=320|35=8|49=ExchangeX|56=BrokerA|34=10|52=20240829-09:21:00|37=EXEC0005|17=EX00005|11=MLG005|55=TSLA|54=2|150=0|39=2|44=720.75|38=250|442=1|555=2|600=LEG1|608=202413|54=2|32=125|31=720.75|600=LEG2|608=202413|54=1|32=125|31=720.75|60=20240829-09:21:00|10=010|
#These FIX 4.4 messages simulate different multileg trading orders and their execution reports. Each pair of messages consists of an order (35=AB) and a corresponding execution report (35=8) with multileg instruments (specified with 555 repeating groups for leg details).
---Here are 10 FIX version 4.4 messages for derivatives (options and futures) simulating a market day. These messages include New Order Single (35=D) and Execution Report (35=8) messages for derivative instruments.
8=FIX.4.4|9=178|35=D|49=BrokerA|56=ExchangeX|34=1|52=20240829-09:00:00|11=ORD0001|21=1|55=AAPL 202409C150|54=1|38=50|40=2|44=5.50|59=0|15=USD|10=001|
8=FIX.4.4|9=218|35=8|49=ExchangeX|56=BrokerA|34=2|52=20240829-09:01:00|37=EXEC0001|17=EX00001|11=ORD0001|55=AAPL 202409C150|54=1|150=0|39=2|44=5.50|32=50|31=5.50|14=50|6=5.50|60=20240829-09:01:00|15=USD|10=002|
8=FIX.4.4|9=179|35=D|49=BrokerB|56=ExchangeX|34=3|52=20240829-09:05:00|11=ORD0002|21=1|55=GOOGL 202410P2750|54=2|38=75|40=2|44=12.75|59=0|15=USD|10=003|
8=FIX.4.4|9=219|35=8|49=ExchangeX|56=BrokerB|34=4|52=20240829-09:06:00|37=EXEC0002|17=EX00002|11=ORD0002|55=GOOGL 202410P2750|54=2|150=0|39=2|44=12.75|32=75|31=12.75|14=75|6=12.75|60=20240829-09:06:00|15=USD|10=004|
8=FIX.4.4|9=182|35=D|49=BrokerC|56=ExchangeX|34=5|52=20240829-09:10:00|11=ORD0003|21=1|55=MSFT 202411F300|54=1|38=100|40=2|44=6.25|59=0|15=USD|10=005|
8=FIX.4.4|9=222|35=8|49=ExchangeX|56=BrokerC|34=6|52=20240829-09:11:00|37=EXEC0003|17=EX00003|11=ORD0003|55=MSFT 202411F300|54=1|150=0|39=2|44=6.25|32=100|31=6.25|14=100|6=6.25|60=20240829-09:11:00|15=USD|10=006|
8=FIX.4.4|9=180|35=D|49=BrokerD|56=ExchangeX|34=7|52=20240829-09:15:00|11=ORD0004|21=1|55=FB 202412C370|54=1|38=60|40=2|44=7.00|59=0|15=USD|10=007|
8=FIX.4.4|9=220|35=8|49=ExchangeX|56=BrokerD|34=8|52=20240829-09:16:00|37=EXEC0004|17=EX00004|11=ORD0004|55=FB 202412C370|54=1|150=0|39=2|44=7.00|32=60|31=7.00|14=60|6=7.00|60=20240829-09:16:00|15=USD|10=008|
8=FIX.4.4|9=180|35=D|49=BrokerA|56=ExchangeX|34=9|52=20240829-09:20:00|11=ORD0005|21=1|55=TSLA 202413P720|54=2|38=80|40=2|44=14.50|59=0|15=USD|10=009|
8=FIX.4.4|9=220|35=8|49=ExchangeX|56=BrokerA|34=10|52=20240829-09:21:00|37=EXEC0005|17=EX00005|11=ORD0005|55=TSLA 202413P720|54=2|150=0|39=2|44=14.50|32=80|31=14.50|14=80|6=14.50|60=20240829-09:21:00|15=USD|10=010|
---These FIX 4.4 messages simulate orders and execution reports for various derivatives (options with different expiries and strike prices). The symbols include expiration dates and strike prices, reflecting common practices in derivative trading.